:020000040800F2
:10000000B00A0020AD02000889680008616000089D
:100010008168000889070008717C00080000000062
:10002000000000000000000000000000D96A000885
:10003000710D00080000000091680008E16A0008E6
:10004000C7020008C7020008C7020008C70200086C
:10005000C7020008C7020008C7020008C70200085C
:10006000C7020008C7020008C7020008910700087D
:10007000A1070008B107000871080008C7020008BE
:10008000C7020008C7020008C7020008C70200082C
:10009000C7020008C7020008C7020008C70200081C
:1000A000C7020008C7020008C7020008C70200080C
:1000B000C7020008C7020008C7020008C7020008FC
:1000C000C7020008C7020008C7020008C7020008EC
:1000D000C7020008617C0008C7020008C7020008C8
:1000E000C7020008C702000800000000C70200089D
:1000F000C7020008C7020008C7020008C7020008BC
:10010000C7020008C7020008C7020008C7020008AB
:10011000C7020008C7020008C7020008C70200089B
:10012000C7020008C7020008C7020008C70200088B
:10013000C7020008C7020008C7020008C70200087B
:1001400000000000000000000000000000000000AF
:10015000C7020008C7020008C7020008C70200085B
:10016000C7020008C7020008C7020008C70200084B
:10017000C7020008C7020008C7020008C70200083B
:10018000C7020008C7020008C7020008C70200082B
:10019000C7020008C7020008C7020008C70200081B
:1001A000C7020008C7020008C7020008C70200080B
:1001B000C7020008C7020008C7020008C7020008FB
:1001C000C7020008C7020008C7020008C7020008EB
:1001D000C7020008C7020008C7020008C7020008DB
:1001E000C7020008C7020008C7020008C7020008CB
:1001F000C7020008C7020008C7020008C7020008BB
:10020000C7020008C7020008C7020008C7020008AA
:10021000C7020008C7020008C7020008C70200089A
:10022000C7020008C7020008C7020008000000005B
:10023000C7020008C702000800000000C70200084B
:10024000C7020008D9060008C7020008C702000854
:10025000C7020008C7020008C7020008C70200085A
:10026000C7020008C7020008C7020008C70200084A
:10027000C7020008C7020008C7020008000000000B
:10028000C7020008C7020008C702000800000000FB
:1002900000000000C7020008DFF80CD000F082F870
:1002A00000480047A97C0008B00A002006488047A3
:1002B00006480047FEE7FEE7FEE7FEE7FEE7FEE74B
:1002C000FEE7FEE7FEE7FEE7A96B000899020008DB
:1002D0002DE9F05F0546002092469B46884606467B
:1002E000814640241BE0284641464746224600F00E
:1002F00048F853465A46C01A914110D31146184641
:10030000224600F02FF82D1A67EB01084F462246CF
:100310000120002100F026F817EB00094E41201EB5
:10032000A4F10104DFDC484631462A464346BDE8D5
:10033000F09FD2B201E000F8012B491EFBD27047BA
:100340000022F6E710B513460A4604461946FFF7A1
:10035000F0FF204610BD421C10F8011B0029FBD104
:10036000801A7047202A04DB203A00FA02F10020AC
:1003700070479140C2F1200320FA03F319439040E3
:100380007047202A04DB203A21FA02F0002170474E
:1003900021FA02F3D040C2F12002914008431946ED
:1003A000704700001CB509480090094801900546B7
:1003B000009C06E0E06840F0010394E807009847DD
:1003C0001034AC42F6D3FFF76BFF00003481000815
:1003D0007481000830B58C1810F8012B12F00F034F
:1003E00001D110F8013B120906D110F8012B03E0EE
:1003F00010F8015B01F8015B5B1EF9D101E001F827
:10040000013B521EFBD1A142E6D3002030BD0000CB
:10041000B0B50446006842F2001140F48070C4F2A6
:100420000201884204D142F20830C4F2020003E023
:1004300046F20830C5F60200006810F4403F10D0C4
:1004400004F002FD61680546B1F5803F05D0B1F5C5
:10045000403F22D0B1F5003F20D1080CB5FBF0F5AC
:100460001CE04FF40020002103F0C2FC6168054647
:10047000A1F580224FEAB2420A2A0FD8DFE802F043
:100480000606060606064D4B51494F006FF0010067
:1004900000EA5140B5FBF0F500E0AD0803F0CCF9FF
:1004A00041F2030188420DD8206842F60151C0F2A2
:1004B00031118D4281682CBF41F4807121F480712B
:1004C0008160B0BD4BF62140C0F2BE00854205D828
:1004D0002068816821F440718160B0BD47F6410019
:1004E000C0F27D10854203D820680122816808E0AF
:1004F00020684FF28101C0F2FA218D42816804D850
:10050000022262F309218160B0BD41F44071816033
:10051000B0BDED09C2E76D09C0E72D09BEE72D0AA0
:10052000BCE7AD09BAE700000146806B426D12F0EE
:10053000500F426D05D0D2060FD4C06CC26C084675
:10054000104742F40071416501680A681207CA68E1
:1005500005D4910709D000F013BF00F019BF12F4C1
:10056000406FF8D1C9688904F5D4416D21F48071D8
:100570004165416DC904EED4416D41F00101416511
:1005800000F0FEBE00000000806B416D41F04001B4
:100590004165816D41F00401816500F0F9BE000004
:1005A000806B00F0F1BE0000B0B5016804468A68B7
:1005B0008868C0074FF0000032D012F0020218BF66
:1005C000B0BD886800F00D00012820D14FF6C07240
:1005D0008868C7F6FF721040023088600320086008
:1005E00003F032F921688968C90701D10020B0BD44
:1005F000054603E020688068C007F7D003F024F9BF
:10060000401B0328F6D320688068C007F2D0606DD5
:1006100040F010006065A06D40F00100A065012071
:10062000B0BD000000000000F0B581B004460068D5
:100630008168C9074BD14FF6C0778168C7F6FF774D
:1006400007F17F0211420AD0606D40F01000606532
:10065000A06D40F00100A065012001B0F0BD8168EF
:10066000394041F00101816003F0EEF842F20002EE
:1006700046F20836C4F20202216802F5807302F5E0
:100680004275C5F60206994208BF2E46914208BF40
:100690002E4699420546306815D110F01F0016D13C
:1006A00011E000BF8168C90704D18168394041F079
:1006B0000101816003F0C8F8401B032803D32068C0
:1006C0000068C007C0D020680168C907EAD00020D0
:1006D00001B0F0BD0000000080B540F2682040F29B
:1006E000044EC2F20000C4F2020E45F2004C0EF1BC
:1006F000B4030068C5F6020C9842624613D80EF1A6
:100700005402904272460ED80022C4F2020202F154
:10071000B801884202D902F5806204E002F1580172
:10072000884288BF04321168890723D540F231011D
:100730009842C2F200014FF001020A7002D9DCF8BF
:10074000000017E00EF15401884202D9DEF80000E3
:1007500010E00021C4F2020101F1B802904202D976
:10076000D1F8000406E001F15802904201D948682E
:1007700000E0086840F26820C2F20000BDE8804056
:1007800001F04EBD00000000FEE700000000000088
:1007900040F2E020C2F2000001F042BD0000000083
:1007A00040F25830C2F2000001F03ABD00000000F3
:1007B00080B540F2781140F25840C2F20001C4F214
:1007C000020045F2004C00F160030968C5F6020C16
:1007D0009942624615D8814202D9A0F1540210E034
:1007E00040F2580EC4F2020E0EF16002914202D99C
:1007F0000EF56A7205E0AEF15802714588BFAEF1A0
:1008000054021268920229D540F228029942C2F29B
:1008100000024FF00103137004D94FF40010CCF81C
:1008200004001BE0814204D94FF4001140F84C1C35
:1008300014E05822C4F2020202F16003994204D982
:100840004FF4001140F8501C08E04FF400109142A2
:1008500002D942F84C0C01E042F8500C40F27810FA
:10086000C2F20000BDE8804001F0DABC00000000E8
:1008700080B540F2F01140F25840C2F20001C4F2DB
:10088000020045F2004C00F160030968C5F6020C55
:100890009942624615D8814202D9A0F1540210E073
:1008A00040F2580EC4F2020E0EF16002914202D9DB
:1008B0000EF56A7205E0AEF15802714588BFAEF1DF
:1008C00054021268120129D540F230029942C2F254
:1008D00000024FF00103137004D94FF00060CCF810
:1008E00004001BE0814204D94FF0006140F84C1C29
:1008F00014E05822C4F2020202F16003994204D9C2
:100900004FF0006140F8501C08E04FF00060914249
:1009100002D942F84C0C01E042F8500C40F2F010C1
:10092000C2F20000BDE8804001F07ABC0000000087
:1009300040F20F42D0F800C0C4F20202944510DC2D
:100940006F22C4F20202944520DC3F22C4F202026C
:10095000944536DC1022C4F20202944554D0282279
:100960004EE040F26F42C4F2020294451ADC40F2BB
:100970003F42C4F2020294452ADC40F21042C4F223
:100980000202944540D040F2284239E09F22C4F24E
:100990000202944525DC7022C4F20202944533D051
:1009A00088222DE040F29F42C4F2020294451FDCEF
:1009B00040F27042C4F20202944525D040F28842CF
:1009C0001EE04022C4F2020294451DD0582217E0D6
:1009D00040F24042C4F20202944515D040F258421F
:1009E0000EE0A022C4F2020294450DD0B82207E026
:1009F00040F2B842C4F20202944505D040F2A0424F
:100A0000C4F20202944517D10CF0F8024AF6AB2367
:100A1000103ACAF6AA23A2FB033109A35F2AC1F345
:100A200002115B5C40F2FF312CEA0101C36588BF13
:100A300004318165084670472CF0FF01F9E700BFDB
:100A4000000610160006101670B540F26F44D0F87C
:100A500000C0C4F20204D0F858E0A44519DC9F2578
:100A6000C4F20205AC4531DC5725C4F20205AC45A1
:100A700056DC1025C4F20205AC4500F09280282512
:100A8000C4F20205AC4500F08C804025C4F202059A
:100A900084E045F22F45C5F60205AC452BDC40F25B
:100AA000B745C4F20205AC4548DC40F27045C4F2DB
:100AB0000205AC4575D040F28845C4F20205AC454C
:100AC0006FD040F2A045C4F2020567E040F227452E
:100AD000C4F20205AC4540DCA025C4F20205AC45D9
:100AE0005FD0B825C4F20205AC455AD040F210459B
:100AF000C4F2020552E045F26B45C5F60205AC456D
:100B00003CDC45F23045C5F60205AC4549D045F21E
:100B10004445C5F60205AC4543D045F258453BE097
:100B20005825C4F20205AC453BD07025C4F202053D
:100B3000AC4536D08825C4F202052FE040F2B84516
:100B4000C4F20205AC452CD045F20845C5F60205B5
:100B5000AC4526D045F21C451EE040F22845C4F2C3
:100B60000205AC451DD040F24045C4F20205AC453B
:100B700017D040F25845C4F202050FE045F26C452B
:100B8000C5F60205AC450CD045F29445C5F6020504
:100B9000AC4506D045F28045C5F60205AC4540F0AF
:100BA000CC80456EC66E002E866E6E601CBFD0E98E
:100BB0001C566E60A44515DC9F24C4F20204A445B3
:100BC0002BDC5724C4F20204A4454EDC1024C4F2EA
:100BD0000204A44576D02824C4F20204A44571D0AE
:100BE00040246BE045F22F44C5F60204A44527DCFF
:100BF00040F2B744C4F20204A44542DC40F270441F
:100C0000C4F20204A4455DD040F28844C4F2020458
:100C1000A44557D040F2A04450E040F22744C4F22B
:100C20000204A4453CDCA024C4F20204A44549D03B
:100C3000B824C4F20204A44544D040F210443DE07C
:100C400045F26B44C5F60204A44553DC45F230443A
:100C5000C5F60204A4455FD045F24444C5F602043B
:100C6000A44559D045F2584452E05824C4F2020435
:100C7000A44527D07024C4F20204A44522D08824BD
:100C80001CE040F2B844C4F20204A4451AD045F274
:100C90000844C5F60204A4453ED045F21C4437E0A2
:100CA00040F22844C4F20204A4450BD040F2404470
:100CB000C4F20204A44505D040F25844C4F2020430
:100CC000A4453AD18468C06D00F01F003F2505FAA5
:100CD00000F0CEF80800DCF80000402C20F4802062
:100CE000CCF80000CCF8043023D1CCF80820CCF8A4
:100CF0000C1070BD45F26C44C5F60204A4450BD03F
:100D000045F28044C5F60204A44505D045F294445A
:100D1000C5F60204A44510D1C46D012504F01F04DA
:100D2000806805FA04F4CEF804404028CCF804307A
:100D3000DBD0CCF80810CCF80C2070BD000000000F
:100D40004EF6FC50CEF200000168C90148BF704762
:100D5000016841F08071016041F200000021CEF293
:100D600000004160016841F001010160704700002E
:100D7000704700000000000072B600BFFEE70000F0
:100D800070B582B000230193044690F8500001280A
:100D900002D1022002B070BD012084F8500020462C
:100DA0000E461546FFF700FC616D10B141F01001D1
:100DB0002DE041F202124FF6C0739143C3F6FE7369
:100DC00002316165216806F4803605F080458A6845
:100DD0001A4073191A4402F100428A604FF6000269
:100DE000C2F2C3528B68B3F1FF3F0CDC019B0133AD
:100DF0000193019B9342F5D3606D40F0100020F009
:100E00000201012003E0616D012262F301016165CD
:100E1000002184F8501002B070BD000000000000F6
:100E200090F85020012A01D10220704770B582B09D
:100E300042F20835012280F8502000230193C4F2C9
:100E400002050093A5F542740368A34228D14FF62A
:100E5000006CCFF6FF7C55F80C409A68224352078D
:100E60001ED4D1F800E02A68BEF1000F22F44044FD
:100E700023D043F4807242F20013C4F202034E689E
:100E80009A4244EA06022A602BD14FF60052CFF66E
:100E9000FF72AA5855F80C301343DA073FD127E008
:100EA000416D41F0200141650121002280F8502070
:100EB00002B0BDE870400846704742F2001243F4A9
:100EC0008071C4F202022C6091421AD14FF6005197
:100ED000CFF6FF71695855F80C201143C9071ED190
:100EE00016E046F20802C5F602021368DA0716D1C8
:100EF0002A6840F61F739A438968114341EA0E013C
:100F00000AE046F20801C5F602010968C90706D1E0
:100F1000296840F61F72914329600021C5E700212E
:100F2000C3E7000000000000F0B581B0002200928D
:100F300090F85020012A01D1022189E1076801239C
:100F400080F85030BB685B0700F17A810B684FF680
:100F5000FF7C002BC0F20F0C0FD493FAA3F413EA1A
:100F60000C0FB4FA84F44FF0010208BF9C0E04F099
:100F70001F04A240FC692243FA614A681F25C3F39B
:100F80008463C2F3012402F01F02954007EB84043E
:100F900003FA02F2266BAE4332432263BA68BB689F
:100FA00002F0040203F00803D21840F082800A68BD
:100FB00007258E68C2F34063C2F3045207EB830334
:100FC00095405C6906FA02F224EA05052A435A6153
:100FD00041F20002C5F60042126802F07042B2F11E
:100FE000805F07D14A69FB680E2606EA530302FABE
:100FF00003F30CE0FA684B69FE68D2064FEA560428
:1010000002D404F00E0201E004F0080293400C69DF
:10101000042C26D13A6E0B6802F0F8429B069A42E5
:1010200003D13A6E22F000423A667A6E02F0F8423C
:101030009A4203D17A6E22F000427A66BA6E02F0CA
:10104000F8429A4203D1BA6E22F00042BA66FA6EB2
:1010500002F0F8429A422CD1FA6E22F00042FA666F
:1010600027E007F160020E6806F0F84652F82450B7
:10107000334305F000452B4342F824300B694E7E84
:1010800052F82350012E25F0004508BF05F1004518
:1010900042F823500A7E0B693E69013A03F01F03B0
:1010A000B2FA82F226F4F0465209D2029A40324352
:1010B0003A61BA68D20778D1D1F800E00023C96854
:1010C000D7F8C0200EEA0C04C4F25273A24301F018
:1010D00018042CFA04F603F52D0506EA0E06A942BB
:1010E00046EA0201C7F8C0105CD142F20011C4F216
:1010F00002018F4225D042F20001C4F202018F4268
:101100003BD11F21C1F2F0418E4520DD40F2FF713D
:10111000C2F630618E4540F3A48040F60001C2F66D
:1011200030618E4500F0188141F20001C3F2602168
:101130008E4500F006810021C4F221318E451DD07C
:1011400014E11F21C1F2F0418E4500F38480072194
:10115000C0F690418E4500F394800221C0F23041E8
:101160008E4500F0F7800421C0F660018E4540F006
:10117000FD804023C1F6201300E0002393FAA3F181
:1011800043F6C132B1FA81F1C0F20A0213424FF0C4
:10119000010208BF990E01F01F0102FA01F1FA697C
:1011A0001143F961BEF1FF3F01DD00214DE042F244
:1011B000000146F2083CC4F20201C5F6020C01F53A
:1011C000807201F542739742624608BF1A468F4209
:1011D00042F2001408BF1A4647F48073C4F20204B6
:1011E000A342136824D18A68D1F808111143C907B2
:1011F00026D1002103F0E074CCF684318E4508BF7F
:1012000013F400014CD00021CCF252718E4573D101
:101210000021B1EB146F6FD1ACF542718F42C4D194
:10122000DCF8001021F0E071214341F0807178E09A
:101230004FF60051CFF6FF715CF80110C907D8D006
:10124000416D41F0200141650121002280F85020CC
:10125000084601B0F0BD40F2FF71C2F630618E4524
:1012600063DC2021C1F2F0418E457AD040F200418A
:10127000C2F600218E4579D140F60003C2F63063F4
:101280007CE70821C0F690418E455FD01021C1F265
:10129000C0018E456AD140F20013C2F280136DE79F
:1012A000ACF542718F427FF480AFDCF8001042F65B
:1012B000635221F0E071C0F23E52214341F400013B
:1012C000CCF8001040F20C01C2F200010968890953
:1012D000A1FB02129109022202EB41010091009947
:1012E00000293FF462AF009901390091009900296B
:1012F0004FF00001F7D1A8E7ACF542718F424FF0F3
:101300000001A2D10022CCF6B872964508BF13F4B2
:1013100080029AD1DCF8001021F0E071214341F401
:101320008001CCF8001000218FE740F60001C2F6E2
:1013300030618E4510D041F20001C3F260218E452C
:1013400014D142F20003C3F2906317E78023C1F681
:10135000505313E7012311E741F20003C3F2602366
:101360000CE740F20023C2F2B05307E7002100234C
:10137000C4F684318E4504BF0023C4F6B873FDE67D
:1013800070470000000000007047000000000000EF
:101390007047000000000000B0B582B0044600288D
:1013A0004FF00000019040D0606D30B9204600F051
:1013B00007F90020A06584F8500020688168890042
:1013C0004FF6C071C5F6FF7102D582680A4082608F
:1013D0008268D2001CD4826801F18051114042F62B
:1013E000635241F08051816040F20C01C0F23E52E4
:1013F000C2F2000109688909A1FB0212012101EB77
:10140000921100BF0191019911B101990139F9E7D8
:101410008168C9000BD4616D012541F0100161653F
:10142000A16D41F00101A16502E00125BCE00025AC
:101430008168626D02F0100201F004018918616D8B
:1014400042D121F48171023161658168C90728D1D7
:1014500042F2001240F48071C4F20202914242F260
:101460000001C4F2020140F0A2808A68D1F808317C
:101470001A43D20715D101F5807201F5427346F285
:10148000080C9042C5F6020C1A4618BF0CF54072C3
:10149000884208BF1A466068116821F47C1108432D
:1014A000106002F0C9F941F20401884210D3A0682B
:1014B00010280DD1607D216B227F41EA403040EA47
:1014C000024040F01C010CE041F0100001256AE0F0
:1014D000607D216B227F41EA4030A168084340EAE9
:1014E0000241207F012806D1206A0022CFF6FE7239
:1014F00002EB40400143606A20B100F47870A26AB8
:101500001043014320684CF20303CFF6F073C26826
:101510001A401143C1608168826801F0040102F041
:101520000802891830D1217D44F2030CE26AC368B5
:1015300042EA813123EA0C021143C16094F8381069
:101540000129016914D14FF61E02CFF6004201EACB
:10155000020C0121D4E90F23CFF6FF7101EB024108
:1015600043EA0C02636C1143A26C1943114301E07E
:1015700021F0010101610169626B21F070411143A9
:1015800001612046FEF744FF2068E1680129026BF3
:1015900022F00F0102D1A269013A11430163012136
:1015A000606D61F301006065284602B0B0BD46F28F
:1015B0000802C5F602021268D2073FF45CAF70E77A
:1015C000F0B587B046F2000104460068C5F6020196
:1015D00000268842CDE9056604960396029600F03F
:1015E000938042F20011C4F20201884241D042F2DB
:1015F0000001C4F20201884240F0C88040F220019C
:1016000044F2E040C2F20001C5F602000A68002A76
:1016100002F101020A600BD150F8081C41F02001D0
:1016200040F8081C50F8081C01F0200101910199B4
:10163000016841F001010160006802A900F00100A9
:1016400001900198402002900320039040F6000092
:10165000C5F602000496A0F5006002F009F840F219
:1016600078154020C2F20005C4F20200286009206B
:1016700038E040F2200144F2E040C2F20001C5F639
:1016800002000A68002A02F101020A600BD150F838
:10169000081C41F0200140F8081C50F8081C01F01B
:1016A000200101910199016841F004010160006885
:1016B00002A900F00400019001981020029003207C
:1016C000CDE9030640F60000C5F6020001F0D0FFA8
:1016D00040F2F0154020C2F20005C4F202001830BA
:1016E00028600A2068604FF48060AE60EE60286178
:1016F0004FF4006068614FF40050A8614FF48070AF
:10170000E8612E626E6239E044F2E04702A9C5F654
:101710000207386840F080703860386800F08070E8
:1017200001900198386840F004003860386800F093
:10173000040001900198022002900320CDE90306E5
:1017400040F60000C5F6020001F092FF40F2682565
:1017500007F62870C2F2000528601120C5E90106CD
:10176000EE604FF4806028614FF4006068614FF4D0
:101770000050A8614FF48070C5E90706284601F0C3
:101780008FFA08B1FFF7F8FAE564AC6307B0F0BD73
:101790002DE9F04142F2001646F20834C4F2020686
:1017A000076806F50275C5F60204A6F58073B74210
:1017B00008BF2C469F4208BF2C462368BF687F079E
:1017C00003D490F85070012F02D10220BDE8F081BF
:1017D00003F01F070123092F80F8503058D8BB4071
:1017E00040F221252B4253D00D4690460446FEF789
:1017F0001BFF20B1002184F85010BDE8F081216862
:10180000606D40F601732246984300F58070606574
:101810000FB1B14203D0506D20F480105065506D6F
:1018200040F22957C0044FF0000044BF906D20F0F3
:10183000060040F2A156C0F600079065C0F600060B
:10184000D06C00231446C0E90F7640F28957D66A5F
:10185000C0F60007C7641C270F6082F850302A4684
:101860004B6843F010034B60CB6823F00303334312
:10187000CB604031434601F023FD21684FF6C07331
:10188000C7F6FF738A681A4004328A60BDE8F081A7
:10189000002180F850100120BDE8F0810000000018
:1018A0002DE9F041044600284FF0010018BF00293F
:1018B00001D1BDE8F081607901284FF0020008BF36
:1018C000BDE8F0810B680127042B6771207156D1A8
:1018D0000F46154601F0B8FF2268A846002D0546C0
:1018E000506B16D0B0F1FF3F08DD3946B86950643F
:1018F0002CE000BF2268506B0028F6D501F0A4FF51
:10190000401B0228F6D32068406BB0F1FF3FF1DCAA
:1019100011E048F20006C2F2000601E02268506BB6
:10192000304210D001F090FF401B0228F6D320680F
:10193000406B3042F2D0206940F008002061032063
:101940002071BDE8F0813946B8691064206808F05C
:10195000100340F2FF374246866C9F40D1E9075C96
:1019600026EA070705FA03F637438764FF27C66CA4
:101970009F4026EA07070CFA03F33B43C364086958
:1019800002F01002012809D120681F279740836BBD
:101990004E69BB4306FA02F73B438363236807277C
:1019A0009740D86BCE68012E20EA070C4FF000005C
:1019B00003D0022E03D1012605E0002603E08E6845
:1019C000B6FA86F676090D688F682E433743496864
:1019D000974047EA0C07DF634FF480471E68974043
:1019E00026EA07071F6040F6FE771E68974026EA42
:1019F0000707914039431960C02191401A6822EAD3
:101A000001011960012121716071BDE8F0810000C0
:101A100090B1017941B910B500214171044600F03F
:101A20000FF82046BDE8104002210171002101613C
:101A30000122027108467047012070470000000033
:101A400080B586B047F200420068C4F2000200216F
:101A500090420591CDE903110291019101D006B0A8
:101A600080BD44F2E040C5F60200826842F00052B8
:101A70008260826802F000520092009A026842F08E
:101A800001020260006800F0010000900098102040
:101A900001900320CDE90201002001A9C5F6020052
:101AA00001F0E6FD06B080BD2DE9F041044601F0ED
:101AB000CBFE14B3054694F83500022820D140F23D
:101AC0000F472668C4F2020740F26F48BE426FF02B
:101AD0000E00C4F2020817DC6F21C4F202018E422C
:101AE00023DC3F21C4F202018E4239DC1021C4F212
:101AF00002018E4258D0282151E00120BDE8F0813A
:101B000080206065012037E246451ADC40F23F4103
:101B1000C4F202018E422ADC40F21041C4F20201FA
:101B20008E4241D040F2284139E09F21C4F20201A7
:101B30008E4225DC7021C4F202018E4234D088210D
:101B40002DE040F29F41C4F202018E421FDC40F2C0
:101B50007041C4F202018E4226D040F288411EE05C
:101B60004021C4F202018E421ED0582117E040F2FB
:101B70004041C4F202018E4216D040F258410EE0BC
:101B8000A021C4F202018E420ED0B82107E040F23B
:101B9000B841C4F202018E4206D040F2A041C4F224
:101BA00002018E42314607D13146306820F01E00D6
:101BB00041F8140B6FF080000A68464500EA020005
:101BC000086019DC9F20C4F20200864231DC5720F5
:101BD000C4F20200864256DC1020C4F202008642A3
:101BE00000F091802820C4F20200864200F08B8031
:101BF0004020C4F2020084E045F22F40C5F6020006
:101C000086422BDC40F2B740C4F20200864248DC38
:101C100040F27040C4F20200864274D040F2884024
:101C2000C4F2020086426ED040F2A040C4F202002C
:101C300067E040F22740C4F20200864240DCA02068
:101C4000C4F2020086425ED0B820C4F2020086428E
:101C500059D040F21040C4F2020052E045F26B400D
:101C6000C5F6020086423CDC45F23040C5F6020073
:101C7000864248D045F24440C5F60200864242D032
:101C800045F258403BE05820C4F2020086423AD068
:101C90007020C4F20200864235D08820C4F20200CF
:101CA0002FE040F2B840C4F2020086422BD045F249
:101CB0000840C5F60200864225D045F21C401EE0D1
:101CC00040F22840C4F2020086421CD040F240405C
:101CD000C4F20200864216D040F25840C4F202001C
:101CE0000FE045F26C40C5F6020086420BD045F28B
:101CF0009440C5F60200864205D045F28040C5F604
:101D00000200864204D1206E016821F480710160D6
:101D1000306820F0010030603068C0070BD001F05F
:101D200093FD401B0628F7D320206065032084F82C
:101D30003500012020E120680821B8424FF03F0221
:101D400010DC6F23C4F2020398421CDC3F23C4F270
:101D50000203984232DC1023C4F20203984251D0AD
:101D600028234AE040451ADC40F23F43C4F2020314
:101D700098422ADC40F21043C4F20203984241D058
:101D800040F2284339E09F23C4F20203984225DC45
:101D90007023C4F20203984234D088232DE040F22D
:101DA0009F43C4F2020398421FDC40F27043C4F226
:101DB0000203984226D040F288431EE04023C4F23A
:101DC000020398421ED0582317E040F24043C4F269
:101DD0000203984216D040F258430EE0A023C4F20A
:101DE000020398420ED0B82307E040F2A043C4F2A9
:101DF0000203984206D040F2B843C4F2020398426C
:101E000040F0BF80D4E9163707F01F07404502FABB
:101E100007F25A5019DC9F21C4F20201884231DCDA
:101E20005721C4F20201884256DC1021C4F202019B
:101E3000884200F091802821C4F20201884200F01B
:101E40008B804021C4F2020184E045F22F41C5F6A7
:101E5000020188422BDC40F2B741C4F20201884201
:101E600048DC40F27041C4F20201884274D040F272
:101E70008841C4F2020188426ED040F2A041C4F20F
:101E8000020167E040F22741C4F20201884240DCCF
:101E9000A021C4F2020188425ED0B821C4F202013E
:101EA000884259D040F21041C4F2020152E045F29A
:101EB0006B41C5F6020188423CDC45F23041C5F673
:101EC0000201884248D045F24441C5F602018842E9
:101ED00042D045F258413BE05821C4F20201884209
:101EE0003AD07021C4F20201884235D08821C4F270
:101EF00002012FE040F2B841C4F2020188422BD027
:101F000045F20841C5F60201884225D045F21C4140
:101F10001EE040F22841C4F2020188421CD040F287
:101F20004041C4F20201884216D040F25841C4F246
:101F300002010FE045F26C41C5F6020188420BD068
:101F400045F29441C5F60201884205D045F2804130
:101F5000C5F6020188420BD1616EA26EE06E4A6046
:101F600030B1016821F480710160D4E91C01416045
:101F7000012084F835000020002184F83410BDE8E9
:101F8000F081042101223DE7F0B190F835100229DB
:101F900018D180B540F20F420168C4F202029142AA
:101FA00014DC6F23C4F20203994224DC3F23C4F201
:101FB000020399423ADC1023C4F20203994258D03A
:101FC000282352E0802141650120704740F26F4391
:101FD000C4F2020399421ADC40F23F43C4F2020306
:101FE00099422ADC40F21043C4F20203994240D0E5
:101FF00040F2284339E09F23C4F20203994225DCD2
:102000007023C4F20203994233D088232DE040F2BA
:102010009F43C4F2020399421FDC40F27043C4F2B2
:102020000203994225D040F288431EE04023C4F2C7
:10203000020399421DD0582317E040F24043C4F2F6
:102040000203994215D040F258430EE0A023C4F297
:10205000020399420DD0B82307E040F2B843C4F21E
:102060000203994205D040F2A043C4F20203994210
:102070006ED191424FF0040280F8352010DC6F20C1
:10208000C4F20200814220DC3F20C4F202008142FF
:1020900036DC1020C4F20200814253D028204EE0EA
:1020A00040F26F40C4F2020081421ADC40F23F402D
:1020B000C4F2020081422ADC40F21040C4F2020065
:1020C00081423FD040F2284039E09F20C4F2020014
:1020D000814225DC7020C4F20200814232D0882087
:1020E0002DE040F29F40C4F2020081421FDC40F22A
:1020F0007040C4F20200814224D040F288401EE0C9
:102100004020C4F2020081421CD0582017E040F267
:102110004040C4F20200814214D040F258400EE028
:10212000A020C4F2020081420CD0B82007E040F2A7
:10213000B840C4F20200814204D040F2A040C4F290
:1021400002008142086820F001000860002080BD84
:102150000A6822F00E020A6045F25742C5F60202F2
:1021600091420A6822F001020A600EDC45F22F4219
:10217000C5F60202914217DC45F20842C5F602029A
:10218000914226D045F21C421FE045F27F42C5F63F
:102190000202914211DC45F25842C5F60202914218
:1021A00017D045F26C4210E045F23042C5F602020B
:1021B00091420ED045F2444207E045F29442C5F602
:1021C0000202914205D045F28042C5F602029142D8
:1021D0001AD1D0E9181CD0E916E30A6822F48072FB
:1021E0000A6003F01F01012202FA01F1CEF8041087
:1021F000816ECCF80410C16E31B10A6822F480728D
:102200000A60D0E91C124A60012180F83510016D86
:102210000022002980F8342098D08847002080BD13
:102220002DE9F04381B00021009140F20C0148F209
:10223000B513C2F20001C1F64E33856D40F26F490D
:102240000A680168C4F202092E68A2FB0328494506
:102250002B6815DC9F22C4F2020291422BDC57222C
:10226000C4F2020291424FDC1022C4F202029142F7
:1022700078D02822C4F20202914273D040226CE04E
:1022800045F22F42C5F60202914227DC40F2B742E6
:10229000C4F20202914243DC40F27042C4F20202F4
:1022A00091425FD040F28842C4F20202914259D07A
:1022B00040F2A04251E040F22742C4F202029142B1
:1022C0003DDCA022C4F2020291424BD0B822C4F2FB
:1022D0000202914246D040F210423EE045F26B428B
:1022E000C5F60202914275DC45F23042C5F60202A3
:1022F000914200F0828045F24442C5F602029142CA
:102300007BD045F2584273E05822C4F20202914257
:1023100028D07022C4F20202914223D088221CE00D
:1023200040F2B842C4F2020291421BD045F2084288
:10233000C5F60202914260D045F21C4258E040F2DC
:102340002842C4F2020291420CD040F24042C4F250
:102350000202914206D040F25842C4F20202914277
:1023600040F02D84C26D082302F01F0293403342D7
:1023700000F0168140F20F44C4F20204A1424FF073
:10238000040413DC6F27C4F20207B94200F3918002
:102390003F27C4F20207B94200F3D2801027C4F2EB
:1023A0000207B94200F0F0802827E8E0494500F331
:1023B0008C8040F23F47C4F20207B94200F3C78065
:1023C00040F21047C4F20207B94200F0DD8040F24B
:1023D0002847D4E045F26C42C5F6020291420CD087
:1023E00045F28042C5F60202914206D045F294427F
:1023F000C5F60202914240F0E2830E68C26D02F01F
:102400001F02042707FA02F41C4218BF16F0040743
:102410002CD1022707FA02F41C4218BF16F002075B
:1024200062D1D3401B0740F1CA8316F0080300F0C5
:10243000C68340F20F43C4F2020399426FF01C03BB
:1024400000F318836F27C4F20207B94200F35483E4
:102450003F27C4F20207B94200F3B4831027C4F245
:102460000207B94200F0D3832827CAE332046C6024
:102470005ED4B20600F1A18340F20F42C4F2020220
:1024800091426FF0080200F3E3826F23C4F202036B
:10249000994200F302833F23C4F20203994200F3FE
:1024A00047831023C4F20203994200F08383282358
:1024B0007AE39F27C4F20207B94251DC7027C4F2C5
:1024C0000207B94260D0882759E040F29F47C4F222
:1024D0000207B9424BDC40F27047C4F20207B9422E
:1024E00052D040F288474AE032046C6000F19C828E
:1024F000B20600F1CF8340F20F42C4F202029142D1
:102500006FF0140200F3D6826F23C4F202039942E3
:1025100000F315833F23C4F20203994200F38C8336
:102520001023C4F20203994200F0AB832823A2E3F4
:10253000F10300F14283816C002940F079833EE38E
:102540004027C4F20207B9421ED0582717E040F2D4
:102550004047C4F20207B94216D040F258470EE095
:10256000A027C4F20207B9420ED0B82707E040F214
:10257000A047C4F20207B94206D040F2B847C4F2FD
:102580000207B94218BF08240F68274208D00F6815
:1025900027F004070F60AB60436D43F00103436510
:1025A0000123934033426FD040F20F47C4F2020739
:1025B000B94210DC6F27C4F20207B9421CDC3F2786
:1025C000C4F20207B94232DC1027C4F20207B94252
:1025D00051D028274AE049451ADC40F23F47C4F26F
:1025E0000207B9422ADC40F21047C4F20207B9429E
:1025F00041D040F2284739E09F27C4F20207B94290
:1026000025DC7027C4F20207B94234D088272DE0B8
:1026100040F29F47C4F20207B9421FDC40F2704704
:10262000C4F20207B94226D040F288471EE0402794
:10263000C4F20207B9421ED0582717E040F24047C3
:10264000C4F20207B94216D040F258470EE0A02764
:10265000C4F20207B9420ED0B82707E040F2B847EB
:10266000C4F20207B94206D040F2A047C4F2020702
:10267000B94240F0E1814F6907F0800424B1AB60BA
:10268000436D43F0020343650423934033426FD00C
:1026900040F20F47C4F20207B94210DC6F27C4F2C0
:1026A0000207B9421CDC3F27C4F20207B94232DC00
:1026B0001027C4F20207B94251D028274AE0494501
:1026C0001ADC40F23F47C4F20207B9422ADC40F26A
:1026D0001047C4F20207B94241D040F2284739E01E
:1026E0009F27C4F20207B94225DC7027C4F2020713
:1026F000B94234D088272DE040F29F47C4F2020748
:10270000B9421FDC40F27047C4F20207B94226D03A
:1027100040F288471EE04027C4F20207B9421ED0AB
:10272000582717E040F24047C4F20207B94216D0DA
:1027300040F258470EE0A027C4F20207B9420ED07B
:10274000B82707E040F2B847C4F20207B94206D002
:1027500040F2A047C4F20207B94240F073810F680B
:1027600007F0020424B1AB60436D43F004034365FA
:10277000102303FA02F232427ED040F20F43C4F239
:10278000020399424FF0080310DC6F27C4F20207DE
:10279000B9421CDC3F27C4F20207B94232DC1027E1
:1027A000C4F20207B94251D028274AE049451ADC51
:1027B00040F23F47C4F20207B9422ADC40F2104718
:1027C000C4F20207B94241D040F2284739E09F27BE
:1027D000C4F20207B94225DC7027C4F20207B942ED
:1027E00034D088272DE040F29F47C4F20207B94257
:1027F0001FDC40F27047C4F20207B94226D040F213
:1028000088471EE04027C4F20207B9421ED058276D
:1028100017E040F24047C4F20207B94216D040F236
:1028200058470EE0A027C4F20207B9420ED0B827DD
:1028300007E040F2A047C4F20207B94206D040F2D6
:10284000B847C4F20207B94218BF04230F681F42F9
:1028500012D0AA600A6852030A6806D4D20506D4C8
:102860000A6822F008020A6001E0110352D4016CE8
:1028700011B1044688472046C16D01F01F02202196
:1028800001FA02F3334200F0A68040F20F470168DC
:10289000C4F202071026B94210DC6F27C4F2020707
:1028A000B9421CDC3F27C4F20207B94236DC1027CC
:1028B000C4F20207B94255D028274EE049451ADC38
:1028C00040F23F47C4F20207B9422EDC40F2104703
:1028D000C4F20207B94245D040F228473DE09F27A5
:1028E000C4F20207B94229DC7027C4F20207B942D8
:1028F00038D0882731E040F29F47C4F20207B9423E
:1029000023DC40F27047C4F20207B9422AD040F2F9
:10291000884722E0816C0029ABD1ADE74027C4F2A3
:102920000207B9421ED0582717E040F24047C4F2D0
:102930000207B94216D040F258470EE0A027C4F271
:102940000207B9420ED0B82707E040F2A047C4F210
:102950000207B94206D040F2B847C4F20207B942B2
:1029600018BF02260F68374235D0AB6090F835307B
:10297000042B0B6816D123F016030B604B6923F070
:1029800080034B61036C0BB9836C1BB10B6823F0A4
:1029900008030B603F219140A960012180F83510A8
:1029A000016D3FE15A030A680CD4D2050ED40A68BF
:1029B00022F010020A60012180F83510002180F811
:1029C000341003E0110301D4416C00E0C16B11B17C
:1029D000044688472046416D002900F0F080416D93
:1029E000C9071CD0042180F8351001684FEA9822ED
:1029F0000B6823F001030B60009B013300939342AB
:102A000002D80B68DB07F7D10968C9074FF003014B
:102A100008BF012180F83510002180F83410C16C06
:102A2000002940F00581CAE0F10300F13381416CD7
:102A3000002940F0FD80C2E000240F68002C7FF4E4
:102A40001EAE21E600240F68002C7FF48CAE8FE6CA
:102A5000494542DC40F23F43C4F2020399427CDC28
:102A600040F21043C4F20203994200F0A38040F206
:102A7000284399E049454CDC40F23F47C4F2020745
:102A8000B94200F3A68040F21047C4F20207B942EF
:102A900000F0BD8040F22847B3E09F23C4F2020358
:102AA000994263DC7023C4F20203994200F08280F1
:102AB000882379E0494560DC40F23F43C4F20203D9
:102AC000994200F3C08040F21043C4F202039942DD
:102AD00000F0D78040F22843CDE040F29F43C4F29B
:102AE0000203994258DC40F27043C4F20203994257
:102AF00060D040F2884357E09F27C4F20207B942F2
:102B000070DC7027C4F20207B94200F08080882789
:102B100077E040F29F47C4F20207B94269DC40F215
:102B20007047C4F20207B94271D040F2884768E0AA
:102B30004023C4F2020399423CD0582334E09F233F
:102B4000C4F20203994200F387807023C4F20203A7
:102B5000994200F0968088238DE040F24043C4F211
:102B60000203994226D040F258431DE0A023C4F24C
:102B7000020399421ED0B82316E040F29F43C4F2EC
:102B8000020399426FDC40F27043C4F2020399429F
:102B900077D040F288436EE040F2A043C4F20203D3
:102BA000994207D040F2B843C4F20203994218BFD9
:102BB0006FF004020B681A400A60016CC1BB01B0DF
:102BC000BDE8F0834027C4F20207B9421FD058275E
:102BD00017E040F24047C4F20207B94217D040F272
:102BE00058470EE0A027C4F20207B9420FD0B82719
:102BF00007E040F2A047C4F20207B94207D040F212
:102C0000B847C4F20207B94218BF6FF00E030F684D
:102C10003B400B60012101FA02F26A60416580F8D5
:102C20003510C16C00294FF0000280F83420C6D066
:102C300001B0BDE8F04308474023C4F202039942C3
:102C40001FD0582317E040F24043C4F202039942D8
:102C500017D040F258430EE0A023C4F20203994279
:102C60000FD0B82307E040F2A043C4F20203994218
:102C700007D040F2B843C4F20203994218BF6FF084
:102C80000A020B681A400A60012180F83510002101
:102C900080F83410C16B0029CAD190E70000000011
:102CA0002DE9F041044600F0CFFDECB140F26F4851
:102CB00005462068C4F20208404518DC9F21C4F292
:102CC000020188422EDC5721C4F20201884254DC02
:102CD0001021C4F2020188427DD02821C4F20201F1
:102CE000884278D0402171E00120BDE8F08145F2B2
:102CF0002F41C5F60201884227DC40F2B741C4F2F9
:102D00000201884245DC40F27041C4F2020188426F
:102D100061D040F28841C4F2020188425BD040F2A7
:102D2000A04153E040F22741C4F2020188423FDC57
:102D3000A021C4F2020188424DD0B821C4F20201A0
:102D4000884248D040F2104140E045F26B41C5F660
:102D50000201884200F3928045F23041C5F602013B
:102D6000884200F09D8045F24441C5F60201884248
:102D700000F0968045F258418EE05821C4F20201DD
:102D8000884228D07021C4F20201884223D08821D1
:102D90001CE040F2B841C4F2020188421BD045F267
:102DA0000841C5F6020188427AD045F21C4173E021
:102DB00040F22841C4F2020188420CD040F2404166
:102DC000C4F20201884206D040F25841C4F2020126
:102DD000884240F0C580022184F83510002184F833
:102DE0003410016821F00101016000BF2068016812
:102DF000C9070CD000F028FD401B0628F6D3202080
:102E00006065032084F835000120BDE8F08148F2B8
:102E10003F0204F108060168CFF6106211406569AF
:102E20004CCE1143A2691943E3693143266A0D432D
:102E3000616A2B43042943EA060343EA020303D1F0
:102E4000D4E90B652E43334341F20006C5F6004634
:102E50003668B6F1005F6CD36568A5F12906202EAF
:102E600005D23F27CCF2C037F740FF075CD1A5F170
:102E70004F060025042E38BF012556E045F26C416F
:102E8000C5F6020188420BD045F28041C5F6020129
:102E9000884205D045F29441C5F6020188425FD1CF
:102EA00004F1080E022184F83510002184F8341052
:102EB0000168A3699EE80450A2F18005E769B5FAAC
:102EC00085F566696D09402A4FEA853543EA0702B0
:102ED0006FF3101142EA060208BF102541EADC0137
:102EE00042EA0E022943236A41EAD2014AF6F83245
:102EF000CAF2FD724CF6CD470244CCF6CC4741EA0B
:102F00001311A2FB072301606FF0030000EA930096
:102F1000E0652046FDF70CFDE16D012201F01F0187
:102F200002FA01F1416045E00125002D18BF43F48C
:102F3000801303600429436923F0070341EA030176
:102F40002DD1D4E90A5341EA050143B3B2F5005F3C
:102F500008D09AB9022D16D0012D09D09DB115E0E7
:102F600040204DE7032D11D8DFE805F00A0D0A02D5
:102F7000A3F1C072B2FA82F2520908E0032D01D225
:102F8000012204E002D1C3F3006200E0002232B16A
:102F900040206065012084F83500BDE8F081416182
:102FA0002046FDF7C5FCE16D3F2201F01F0102FA4A
:102FB00001F181602068404519DC9F21C4F20201C3
:102FC000884231DC5721C4F20201884256DC1021CC
:102FD000C4F20201884200F092802821C4F202016A
:102FE000884200F08C804021C4F2020184E045F266
:102FF0002F41C5F6020188422BDC40F2B741C4F2F2
:103000000201884248DC40F27041C4F20201884269
:1030100075D040F28841C4F2020188426FD040F27C
:10302000A041C4F2020167E040F22741C4F202016C
:10303000884240DCA021C4F2020188425FD0B8215E
:10304000C4F2020188425AD040F21041C4F2020197
:1030500052E045F26B41C5F6020188423CDC45F284
:103060003041C5F60201884249D045F24441C5F6D7
:103070000201884243D045F258413BE05821C4F256
:10308000020188423BD07021C4F20201884236D04E
:103090008821C4F202012FE040F2B841C4F20201DB
:1030A00088422CD045F20841C5F60201884226D05C
:1030B00045F21C411EE040F22841C4F20201884260
:1030C0001DD040F24041C4F20201884217D040F2C4
:1030D0005841C4F202010FE045F26C41C5F602010D
:1030E00088420CD045F29441C5F60201884206D0D0
:1030F00045F28041C5F60201884240F0D08045F299
:10310000574C45F6FC0EC5F6020CC5F6020E60459E
:103110000EDC45F22F43C5F60203984217DC45F258
:103120000843C5F60203984226D045F21C431FE02F
:1031300045F27F43C5F60203984211DC45F258433D
:10314000C5F60203984217D045F26C4310E045F2F1
:103150003043C5F6020398420ED045F2444307E0DF
:1031600045F29443C5F60203984205D045F28043E8
:10317000C5F60203984250D100F0FC034CF6CD474F
:10318000083BCCF6CC47A3FB0737AEF1FC05AEF10C
:103190007C063B0905EB83022266A26803F01F034D
:1031A0000127802A666607FA03F2A26601D100228F
:1031B00062606368A56ED4E91827DEB2591E07293C
:1031C00016607D6015D8013E072E62D860450EF16D
:1031D000440213DC45F22F41C5F6020188423CDC73
:1031E00045F20841C5F6020188424BD045F21C4128
:1031F00044E000206067C4E91B0050E045F27F41D5
:10320000C5F60201884231DC45F25841C5F602019B
:10321000884237D045F26C4130E000F0F8034AF6BE
:10322000AB27103BCAF6AA27A3FB073740F20F4390
:10323000C4F2020308253E09984203F1AA0233466C
:1032400088BF05EB171340F600059042C4F2020553
:1032500028BF334605F180069CE745F23041C5F6AC
:10326000020188420ED045F2444107E045F2804118
:10327000C5F60201884205D045F29441C5F6020127
:10328000884213D10EEB8300E06601202267B04034
:10329000606704F16C02002307CA03604A600020E3
:1032A0006065012184F83510BDE8F08140F600002A
:1032B000C4F2020000F1FC0E00F5A072E2E700008B
:1032C00030B110B590F83440012C03D1022010BD6C
:1032D00001207047012480F8344090F83540012CDB
:1032E0002BD1022480F8354000244465D0F800C07A
:1032F000DCF8004024F00104CCF800400446FDF75F
:10330000A3FB40F20F4C2068C4F2020C40F26F4164
:103310006045C4F2020118DC6F23C4F20203984234
:1033200024DC3F23C4F2020398423ADC1023C4F2A7
:103330000203984259D0282352E04FF400614165BE
:10334000002180F83410012010BD88421ADC40F2C0
:103350003F43C4F2020398422ADC40F21043C4F215
:103360000203984241D040F2284339E09F23C4F23F
:103370000203984225DC7023C4F20203984234D041
:1033800088232DE040F29F43C4F2020398421FDCE1
:1033900040F27043C4F20203984226D040F28843C0
:1033A0001EE04023C4F2020398421ED0582317E0C7
:1033B00040F24043C4F20203984216D040F2584310
:1033C0000EE0A023C4F2020398420ED0B82307E017
:1033D00040F2B843C4F20203984206D040F2A04340
:1033E000C4F20203984240F0238103680B2262F387
:1033F00044030360226C1AB1082302681A43026076
:10340000884219DC9F22C4F20202904231DC57222A
:10341000C4F20202904256DC1022C4F20202904230
:1034200000F091802822C4F20202904200F08B80CA
:103430004022C4F2020284E045F22F42C5F60202A5
:1034400090422BDC40F2B742C4F20202904248DCC8
:1034500040F27042C4F20202904274D040F28842BC
:10346000C4F2020290426ED040F2A042C4F20202C4
:1034700067E040F22742C4F20202904240DCA02200
:10348000C4F2020290425ED0B822C4F2020290421C
:1034900059D040F21042C4F2020252E045F26B42AF
:1034A000C5F6020290423CDC45F23042C5F602020B
:1034B000904248D045F24442C5F60202904242D0C2
:1034C00045F258423BE05822C4F2020290423AD000
:1034D0007022C4F20202904235D08822C4F2020265
:1034E0002FE040F2B842C4F2020290422BD045F2E3
:1034F0000842C5F60202904225D045F21C421EE069
:1035000040F22842C4F2020290421CD040F24042F3
:10351000C4F20202904216D040F25842C4F20202B3
:103520000FE045F26C42C5F6020290420BD045F224
:103530009442C5F60202904205D045F28042C5F69B
:10354000020290426ED1236E1A68D20303D51A6824
:1035500042F480721A60E36E1BB11A6842F4807202
:103560001A60604510DC6F21C4F2020188421CDC45
:103570003F21C4F20201884232DC1021C4F2020170
:1035800088424FD028214AE088421ADC40F23F416D
:10359000C4F2020188422ADC40F21041C4F2020166
:1035A00088423FD040F2284139E09F21C4F2020115
:1035B000884225DC7021C4F20201884232D0882181
:1035C0002DE040F29F41C4F2020188421FDC40F22C
:1035D0007041C4F20201884224D040F288411EE0CA
:1035E0004021C4F2020188421CD0582117E040F269
:1035F0004041C4F20201884214D040F258410EE02A
:10360000A021C4F2020188420CD0B82107E040F2A8
:10361000B841C4F20201884204D040F2A041C4F291
:1036200002018842016841F001010160002010BDE3
:103630000268052363F343020260226C002A3FF410
:10364000DFAE0423D9E60000B0B5044600F0FCF874
:1036500040F21A010546C2F20001621C097818BF47
:103660000C4400BF00F0F0F8401BA042FAD3B0BDFC
:103670002DE9F04F83B00E68002E00F0C78000F1F6
:10368000264742F2004507F1FF77C5F602050A22F8
:10369000A8424FEAB72500F1200308BF0922009392
:1036A000092D38BF4FEAB722002400274FF0000A47
:1036B00001920AE00AF1010A0E6836FA0AF207F1ED
:1036C000020704F1040400F0A180012202FA0AFBBF
:1036D00016EA0B08EED0D1F80490032209F0030E8D
:1036E000AEF10106012E02FA07F610D8D0F808C094
:1036F000CD682CEA0602BD402A438260C9F300155A
:10370000426822EA0B0205FA0AF52A434260BEF13A
:10371000030F1FD0C2688D68B243BD40BEF1020FD7
:1037200042EA0502C26015D16FF00302009D02EA71
:103730005A0B04F01C030F2255F80BC002FA03FECB
:10374000D1F810902CEA0E0C09FA03F343EA0C03AB
:1037500045F80B3002684B68B24303F00306BE40E5
:1037600013F4403F42EA06020260A3D044F2F4435D
:1037700040F2084CC5F60203C5F6000C0F251A6886
:1037800042F002021A601A6802F0020202922AF063
:103790000302029B04F00C0352F80C609D40AE4300
:1037A000019D05FA03F3334342F80C304FF0B04C5F
:1037B000DCF800204B6842EA0806DD0258BF22EA26
:1037C00008069D02CCF8006040F2040CC5F6000C1F
:1037D000DCF8002042EA080658BF22EA08069D03EA
:1037E000CCF80060DCF8802042EA080658BF22EAE4
:1037F0000806DB03CCF88060DCF87C2042EA08068F
:1038000058BF22EA0806CCF87C6053E703B0BDE855
:10381000F08F0000000000000069084018BF012080
:103820007047000000000000002A08BF0904816101
:10383000704700000000000041F20000C5F60040A3
:103840000068000C7047000040F2A040C2F2000087
:10385000006870470000000040F21A0040F2A041EA
:10386000C2F20000C2F2000100780A681044086049
:10387000704700000000000080B5032000F0B0F8A1
:1038800001F06AFB44F2184148F2FC03C5F602015C
:10389000C0F600030A68C2F303229A5C096801F0CB
:1038A0000F0102F01F02595CD04040F21002C2F238
:1038B000000201F01F0120FA01F1116040F20C0139
:1038C000C2F2000108600F2000F00AF800281CBFB7
:1038D000012080BD00F030F8002080BD0000000015
:1038E00040F21A01C2F20001097819B310B504467A
:1038F00040F20C00C2F200004FF47A72B2FBF1F118
:103900000068B0FBF1F001F0C7FE0F2C01464FF04C
:1039100001000ED8002918BF10BD4FF0FF30002263
:10392000214600F02DF840F21C010020C2F20001F7
:103930000C6010BD0120704781B044F2F440C5F620
:103940000200016841F002010160006800F002001D
:103950000090009801B07047002848BF704700F001
:103960001F01012202FA01F14EF20012C0F34A10C7
:10397000CEF2000242F82010704700000000000064
:1039800070B54EF60C5C4FF0FF36CEF2000C00F135
:10399000604505F56445DCF80030C3F3022E8EF077
:1039A0000703042B28BF0423BEF1030406FA03F324
:1039B00021EA030100F00F0338BF0024043B002874
:1039C000634406FA04F048BF03F10C05A14022EA63
:1039D000000008430001287070BD000000000000D6
:1039E0004EF60C514FF6FF03CEF200010A681A4062
:1039F00060F30A2242F0806040F0FD70086070477A
:103A0000B0B544F60C05C5F60205296849072968D2
:103A100005D401F00701081A18BF0120B0BD21F03C
:103A2000070108432860FFF70FFF044655F8080C0C
:103A3000800407D4FFF708FF001BB0F57A7FF5D9A3
:103A40000120B0BD0020B0BD80B501F0FDF944F209
:103A5000204148F2FC02C5F60201C0F600020968E6
:103A6000C1F30211515C01F01F01C84080BD00008C
:103A700080B544F2304EC5F6020E5EF8083C5EF8A2
:103A8000081CC1F3051C5EF8041CBCF1000FDEF835
:103A9000042018D001F00101494201EAD20103F0EB
:103AA00003026FF35F31022A00EE101AB8EE400AEB
:103AB00011D0012A0CD01AB95EF8301C89060DD439
:103AC0009FED341A18E000218160C0E9001180BD2B
:103AD0009FED2E1A10E09FED2E1A0DE05EF8301CBF
:103AE00049F20002C0F2D032C1F3C10122FA01F161
:103AF00001EE101AB8EE411ADEF800109FED263ADA
:103B00006FF35F2102EE101ADEF80010C1F34621B8
:103B1000B8EE422A00EE032A00EE10CAB7EE003AD1
:103B2000B8EE400A81EE000A32EE031A02EE101AD5
:103B3000B8EE422A20EE010A32EE031A80EE011A94
:103B4000BCEEC11A80ED001ADEF80010C1F3064188
:103B500001EE101AB8EE411A31EE031A80EE011A86
:103B6000BCEEC11A80ED011ADEF80010C1F3066147
:103B700001EE101AB8EE411A31EE031A80EE010A76
:103B8000BCEEC00A10EE101A816080BD0024744A99
:103B900020BCBE4B0024744C000000390000000023
:103BA00080B544F2384EC5F6020E5EF8103C5EF861
:103BB000101C5EF80C2CC1F3053CDEF80410BCF1BF
:103BC000000F15D0C908D20601EAE2716FF35F3128
:103BD00000EE101A03F003010229B8EE400A0CD0DF
:103BE00071B95EF8381C89060DD49FED351A18E0BE
:103BF00000218160C0E9001180BD9FED301A10E006
:103C00009FED2D1A0DE05EF8381C49F20002C0F25B
:103C1000D032C1F3C10122FA01F101EE101AB8EE5F
:103C2000411ADEF800109FED273A6FF35F2102EE94
:103C3000101ADEF80010C1F34621B8EE422A00EE59
:103C4000032A00EE10CAB7EE003AB8EE400A81EE41
:103C5000000A32EE031A02EE101AB8EE422A20EEE3
:103C6000010A32EE031A80EE011ABCEEC11A80ED91
:103C7000001ADEF80010C1F3064101EE101AB8EE8A
:103C8000411A31EE031A80EE011ABCEEC11A80ED22
:103C9000011ADEF80010C1F3066101EE101AB8EE49
:103CA000411A31EE031A80EE010ABCEEC00A10EE92
:103CB000101A816080BD00BF0024744A20BCBE4B36
:103CC0000024744C0000003980B544F2404EC5F623
:103CD000020E5EF8183C5EF8181C5EF8142CC1F356
:103CE000055CDEF80410BCF1000F15D0C908D20540
:103CF00001EAE2716FF35F3100EE101A03F0030185
:103D00000229B8EE400A0CD071B95EF8401C890651
:103D10000DD49FED351A18E000218160C0E9001133
:103D200080BD9FED301A10E09FED2D1A0DE05EF87A
:103D3000401C49F20002C0F2D032C1F3C10122FAA4
:103D400001F101EE101AB8EE411ADEF800109FEDF5
:103D5000273A6FF35F2102EE101ADEF80010C1F36C
:103D60004621B8EE422A00EE032A00EE10CAB7EE52
:103D7000003AB8EE400A81EE000A32EE031A02EE73
:103D8000101AB8EE422A20EE010A32EE031A80EE33
:103D9000011ABCEEC11A80ED001ADEF80010C1F362
:103DA000064101EE101AB8EE411A31EE031A80EE08
:103DB000011ABCEEC11A80ED011ADEF80010C1F341
:103DC000066101EE101AB8EE411A31EE031A80EEC8
:103DD000010ABCEEC00A10EE101A816080BD00BF5F
:103DE0000024744A20BCBE4B0024744C00000039EF
:103DF00010B584B0024641F6FF7300209B1A70EBA9
:103E0000010329DB40F2FF339B1A70EB01034FDA09
:103E100082F480630B4300F0DC8082F400630B4388
:103E200000F0068182F48052114340F0A08144F2F8
:103E30000041C5F60201086DC0F30232042A00F207
:103E40004F8148F20000C0F2BB00DFE812F003012E
:103E500013011A019001270147F6FF739B1A70EBBB
:103E6000010351DA82F400430B4300F0D08082F466
:103E700080330B4300F0F08082F40022114340F0C5
:103E8000768144F20040C5F60200816D01F44031B4
:103E9000B1F5003F00F03481B1F5803F00F027819B
:103EA000002940F01D810068000100F1E68017E163
:103EB00082F480730B4351D082F40072114340F0BE
:103EC000568144F20041C5F60201086DC0F382122A
:103ED000042A00F2058148F20000C0F2BB00DFE8CE
:103EE00012F0B900C900D00046010500C86C0A688C
:103EF000520700F04052086802D5002A00F02681DF
:103F0000C00500F1D680D7E082F400530B434CD0BB
:103F100082F48042114340F02A8144F20044C5F605
:103F20000204A06DC0F30270052800F2D980DFE81A
:103F300010F006001701FB000401F200200100F060
:103F400083FF216A48F2FC02C0F60002C1F30211AD
:103F5000515C01F01F01C84004B010BD44F20041A3
:103F6000C5F60201086D00F00702042A00F2B880CD
:103F700048F20000C0F2BB00DFE812F06C007C00E9
:103F80008300F9000500C86C0A68520700F040522F
:103F9000086802D5002A00F0D980C00540F18C8065
:103FA000B2F1805F00F0F48086E044F20040C5F694
:103FB0000200016DC1F30241052900F29180DFE8A2
:103FC00001F00369B5C1AC3504B0BDE8104000F0A4
:103FD00063BF44F20041C5F60201886DC0F342524E
:103FE000042A00F27D8048F20000C0F2BB00DFE846
:103FF00002F0314148BE0300C86C0A68520700F065
:104000004052086853D5002A00F0A0804FE044F2E7
:104010000040C5F60200016D01F04051B1F1005FB2
:1040200038D0B1F1805F58D0002959D10068A1E0A3
:1040300044F20041C5F60201886DC0F30262042A11
:104040004ED848F20000C0F2BB00DFE802F00313D4
:104050001A902700086841E044F20040C5F60200CB
:10406000C16C0068C90339D5000139D501A8FFF733
:1040700097FD42E00868000132D501A8FFF790FDE6
:1040800005E0086880002BD501A8FFF71DFE019808
:1040900004B010BD0068000122D564E0C86C0A6855
:1040A000520700F04052086801D5002A4ED0C005E2
:1040B00002D5B2F1805F6BD00868B2F1005F00F406
:1040C00000314FF0000004BF47F64000C0F27D1001
:1040D000002908BF084604B010BD0068800102D462
:1040E000002004B010BD01A8FFF7C2FC3EE000684C
:1040F0008000F5D501A8FFF7E7FD039804B010BDD7
:10410000C16C0268520701F0405102683BD5D1BB37
:10411000C2F3C1001CE0206800E0006840F6001116
:10412000C005C0F23D012AE0206800E00068800080
:10413000D6D501A8FFF7C8FD18E020684007CFD505
:10414000206803E001684907CAD50068C0F3C100D0
:1041500049F20001C0F2D03121FA00F004B010BDE4
:1041600020680001BCD501A8FFF71AFD029804B031
:1041700010BD206847F640018003C0F27D1101EABE
:10418000E07004B010BDD20508D5B1F1805F05D153
:1041900040F60010C0F23D0004B010BD0068B1F15F
:1041A000005F00F400324FF0000004BF47F640000B
:1041B000C0F27D10002A08BF104604B010BD0000F8
:1041C0002DE9F04381B00446C07844F22C49000741
:1041D000C5F6020901D4002520E0A06E4FEA305058
:1041E000032838D80025DFE800F0020A1C22D9F89D
:1041F000000040F40030C9F80000D5B906E004F131
:104200000800022102F048FB054695B9D9F82400C0
:10421000A16E20F440100843C9F824004FF00008B4
:1042200008E004F12800022102F0C6FB0546002D3B
:10423000ECD0A8466078C00721D0A06D042800F219
:104240004E81DFE810F0E9001A010C0005000500BE
:104250006DB1A84613E00125002DEAD1D6E704F19F
:104260002800002102F0A8FB0546002DF1D1D9F865
:104270002400A16D20F007000843C9F824006078ED
:1042800080071FD5E06D4FEAB010042800F22C81A2
:10429000DFE810F0CC00FD000800050005004DB17E
:1042A000A8460FE004F12800002102F085FB054636
:1042B000002DF5D1D9F82400E16D20F4E070084319
:1042C000C9F824006078400721D5D4F8A8004FEA47
:1042D0007050042800F20D81DFE810F0B200E30016
:1042E0000800050005004DB1A84610E004F12800C3
:1042F000002102F061FB0546002DF5D1D9F82C0014
:10430000D4F8A81020F460000843C9F82C006078A5
:1043100000071FD5D4F8AC004FEA3060042800F243
:10432000ED80DFE800F097C8060303004DB1A84612
:1043300010E004F12800002102F03EFB0546002DAC
:10434000F5D1D9F82C00D4F8AC1020F0E060084387
:10435000C9F82C00E07880071BD5E06C4FEA3010DC
:10436000032830D8DFE800F0020526024DB1A84648
:104370000FE0D9F8000040F40030C9F80000002D2B
:10438000F5D1D9F82000E16C20F030000843C9F8DD
:1043900020006078C0062AD5206E4FEA303004280D
:1043A00000F2B180DFE800F0609113030300B5B1C3
:1043B000A8461CE004F10800022102F06DFA05464F
:1043C000002DD4D1DDE70125002DD0D1D9E704F1AE
:1043D0002800002102F0F0FA0546002DE8D1D9F8B6
:1043E0002400216E20F4E0400843C9F824006078DE
:1043F000800640F1A180606E4FEA3040052800F24F
:104400009080DFE800F08B03858B8B8B04F1080034
:10441000012102F041FA80E0D9F8000040F40030B8
:10442000C9F80000002D7FF414AF20E7D9F8000090
:1044300040F40030C9F80000002D7FF431AF39E7B7
:10444000D9F8000040F40030C9F80000002D7FF4D6
:104450004BAF53E7D9F8000040F40030C9F8000032
:10446000002D7FF464AF6CE7D9F8000040F4003011
:10447000C9F80000002D9BD1B1E704F1080000212C
:1044800002F00AFA0546002D7FF4E3AEEFE604F1F0
:104490000800002102F000FA0546002D7FF400AF6D
:1044A00008E704F10800002102F0F6F90546002DA6
:1044B0007FF41AAF22E704F10800002102F0ECF9C2
:1044C0000546002D7FF433AF3BE704F108000021DF
:1044D00002F0E2F90546002D7FF46AAF7FE701257F
:1044E000002D7FF4B6AEC2E60125002D7FF4D8AED4
:1044F000E0E60125002D7FF4F7AEFFE60125002D53
:104500007FF415AF1DE70125002D7FF451AF66E75D
:1045100004F12800012102F04FFA054625B1A84612
:104520000AE00125002DFAD1D9F82400616E20F4AB
:10453000E0200843C9F824006078400625D5D4F867
:10454000B0004FEA3070052813D8DFE800F00F0301
:10455000090F0F0F04F10800012102F09DF904E09A
:1045600004F12800012102F027FA054625B1A846EA
:104570000BE00125002DFAD1D9F82C00D4F8B010A9
:1045800020F0E0400843C9F82C006078000620D5F0
:10459000206FD8B1B0F1005F12D0B0F1805F26D1AA
:1045A000D9F8000040F40030C9F8000085B9D9F806
:1045B0002400216F20F040500843C9F8240008E08F
:1045C00004F10800012102F067F90546002DEED044
:1045D000A846E078C0071ED0A06C032800F28180B6
:1045E000DFE800F0020975026DB1A84613E001256D
:1045F000002DEDD1DBE7D9F8000040F40030C9F818
:104600000000002DF1D1D9F82000A16C20F00300AA
:104610000843C9F82000A078400645D5D9F8D4034E
:1046200040F48070C9F8D403FFF70EF9064600BFC6
:10463000D9F8D403C00505D4FFF706F9801B652817
:10464000F6D303257DBBD9F84410D4F8B40041401B
:1046500011F4407F11D0D9F84410D9F8442042F425
:104660008032C9F84420D9F8442021F4407122F462
:104670008032C9F84420C9F84410B0F5807F0FD1CA
:10468000FFF7E2F8064641F2893700BFD9F8440047
:10469000800705D4FFF7D8F8801BB842F6D303256E
:1046A000002D00F08A82A8462078C00732D0E06F43
:1046B0004FEAF000052822D8DFE800F01E03181E9C
:1046C0001E1E04F10800012102F0E6F813E004F1D7
:1046D0000800022102F0E0F80546002D7FF485AFC6
:1046E00091E70125002D7FF480AF8CE704F12800CD
:1046F000012102F061F9054625B1A8460AE001252D
:10470000002DFAD1D9F82800E16F20F038000843D5
:10471000C9F828002078800721D5A06F052813D874
:10472000DFE800F00F03090F0F0F04F1080001216B
:1047300002F0B2F804E004F12800012102F03CF993
:10474000054625B1A8460AE00125002DFAD1D9F881
:104750002800A16F20F007000843C9F8280020783E
:10476000400723D5D4F89400052813D8DFE800F0DB
:104770000F03090F0F0F04F10800012102F08CF85C
:1047800004E004F12800012102F016F9054625B1E4
:10479000A8460BE00125002DFAD1D9F82C00D4F859
:1047A000941020F007000843C9F82C0020788006F8
:1047B00025D5D4F890004FEA3070052813D8DFE8EB
:1047C00000F00F03090F0F0F04F10800002102F0A1
:1047D00063F804E004F12800022102F0EDF8054638
:1047E00025B1A8460BE00125002DFAD1D9F8280003
:1047F000D4F8901020F0E0400843C9F82800207851
:10480000400625D5D4F89C004FEAB020052813D8DF
:10481000DFE800F00F03090F0F0F04F1080000217B
:1048200002F03AF804E004F12800022102F0C4F892
:10483000054625B1A8460BE00125002DFAD1D9F88F
:104840002C00D4F89C1020F4E0500843C9F82C0048
:104850002078000625D5D4F8A0004FEA703005284E
:1048600013D8DFE800F00F03090F0F0F04F1080061
:10487000002102F011F804E004F12800022102F006
:104880009BF8054625B1A8460BE00125002DFAD17D
:10489000D9F82C00D4F8A01020F460400843C9F8DF
:1048A0002C002078000716D5D4F88400B0F5805F7E
:1048B00008D104F12800022102F07EF8002818BF78
:1048C0004FF00108D9F82800D4F8841020F44050A3
:1048D0000843C9F828002078C00616D5D4F89800F7
:1048E000B0F5807F08D104F12800022102F064F8BD
:1048F000002818BF4FF00108D9F82C00D4F8981000
:1049000020F440700843C9F82C00A078000724D593
:10491000D4F8A400B0F5003F1CD0B0F5803F13D010
:10492000002840F0E98004F10800002101F0B4FF04
:1049300005468DB9D9F82C00D4F8A41020F44030E5
:104940000843C9F82C0008E004F12800022102F015
:1049500033F80546002DEDD0A846A078400725D5B0
:10496000D4F88800B0F5401F1DD0B0F5001F14D05A
:10497000B0F5801F40F0C580D9F8000040F4003049
:10498000C9F800008DB9D9F82800D4F8881020F4AF
:1049900040100843C9F8280008E004F1280001216C
:1049A00002F00AF80546002DEDD0A846A078C00711
:1049B0001FD0206DB0F5803F0BD0002840F09780CD
:1049C000D9F8000040F40030C9F800004DB1A84605
:1049D0000FE004F10800022101F05EFF0546002D02
:1049E000F5D1D9F82000216D20F480300843C9F8B2
:1049F0002000E078800608D504F12800022101F0AB
:104A0000DBFF002818BF4FF00108D4E900108A032B
:104A100040F18680D4F880206FF0010303EB32234D
:104A2000022B0AD34FEA32233BB1012B6ED1D9F8C6
:104A3000003043F40033C9F80030002D69D0CA02B9
:104A400071D4CA007AD48A0200F184804A0000F14D
:104A50008C80CA0F40F09980090200F1A180C00744
:104A600007D004F10800002101F016FF002818BF4C
:104A700005462079800707D504F10800012101F0DF
:104A80000BFF002818BF05462079400707D504F121
:104A90000800022101F000FF002818BF0546207918
:104AA000000707D504F12800002101F085FF002848
:104AB00018BF05462079C00607D504F1280001215A
:104AC00001F07AFF002818BF05462079800607D537
:104AD00004F12800022101F06FFF002818BF012512
:104AE000002D18BF0125284601B0BDE8F08301253F
:104AF000002D7FF46CAF74E70125002D7FF42CAFFF
:104B000018E70125002D7FF450AF3CE70125002D6B
:104B100095D1D9F8283023F440731A43C9F82820D6
:104B20004546CA028DD5D9F82420636F22F0004291
:104B30001A43C9F82420CA007FF585AF59F81C2C08
:104B4000D4F8B83022F480421A4349F81C2C8A0267
:104B50007FF57CAFD9F82420E36E22F080721A43EF
:104B6000C9F824204A007FF574AF59F81C2C22F4B0
:104B7000004249F81C2CD4F8BC2059F81C3C1A43BC
:104B800049F81C2CCA0F3FF467AFD9F82020636D99
:104B900022F040521A43C9F8202009027FF55FAF86
:104BA000D9F82810D4F88C2021F440011143C9F819
:104BB0002810C0077FF455AF5BE74FF6CF73D4F8EA
:104BC000B40059F81C2CC0F2FF0300F4407122F429
:104BD0007C5203EA1013B1F5407F08BF1A436FF30C
:104BE0001F3049F81C2CD9F844100843C9F8440078
:104BF0005AE50000000000002DE9F04381B00028D4
:104C000000F0F88042F200080446C5F20028894608
:104C1000D8F8000000F00F0088420ED2D8F800004B
:104C200020F00F0040EA0900C8F80000D8F80000A2
:104C300000F00F00484540F0DD80206844F218473E
:104C40004107C5F602070AD521693A6802F07002E9
:104C5000914204D93A6822F0700211433960010789
:104C60000AD561697A6802F07002914204D97A68C3
:104C700022F0700211437960C1060AD5A1697A68F1
:104C800002F4E062914204D97A6822F4E0621143AE
:104C9000796081060AD5E169BA6802F07002914232
:104CA00004D9BA6822F070021143B96081070AD5AD
:104CB000E1683A6802F00F02914204D93A6822F0A2
:104CC0000F0211433960C00740F0808020688107DF
:104CD0000AD5E1683A6802F00F02914204D23A68BC
:104CE00022F00F0211433960D8F8001001F00F01D3
:104CF00049450DD9D8F8001021F00F0141EA09010A
:104D0000C8F80010D8F8001001F00F01494571D122
:104D100041070AD521693A6802F07002914204D233
:104D20003A6822F070021143396001070AD56169BF
:104D30007A6802F07002914204D27A6822F070021E
:104D400011437960C1060AD5A1697A6802F4E0626C
:104D5000914204D27A6822F4E062114379608006BD
:104D60000AD5E069B96801F07001884204D2B968D7
:104D700021F070010843B86000F0EEF8396848F29D
:104D8000FC02C0F60002C1F30321515C3B6803F052
:104D90000F0301F01F01D25C20FA01F102F01F00A5
:104DA00040F21002C2F2000221FA00F0106040F25C
:104DB0001C0040F20C02C2F20000C2F200020068C5
:104DC000116001B0BDE8F043FEF78ABD386820F4F9
:104DD0007061D4E9010211433960012857F8181CA9
:104DE0000CD0032804D0022828D1890302D507E07B
:104DF000890105D4012001B0BDE8F083C905F9D5CA
:104E000057F8081C21F00701084347F8080CFEF783
:104E10001BFD064641F2883557F8080C616800F022
:104E20003800B0EBC10F3FF451AFFEF70DFD801B12
:104E3000A842F1D9032001B0BDE8F0834907D9D5D4
:104E4000DEE700000000000080B500F085F844F2C5
:104E5000184148F2FC03C5F60201C0F600030A68D7
:104E6000C2F303229A5C096801F00F0102F01F02ED
:104E7000595C20FA02F201F01F0040F21001C2F268
:104E8000000122FA00F0086040F20C01C2F20001B9
:104E90000A6080BD0000000080B500F05DF844F2BB
:104EA000184C48F2FC03C5F6020CC0F60003DCF80F
:104EB0000020C2F303229A5CDCF8001001F00F011D
:104EC00002F01F02595CD04040F21002C2F2000210
:104ED00001F01F0120FA01F1116040F20C02C2F250
:104EE00000021060DCF80400C0F30210185C00F04F
:104EF0001F0021FA00F080BD80B500F02DF844F2CB
:104F0000184C48F2FC03C5F6020CC0F60003DCF8AE
:104F10000020C2F303229A5CDCF8001001F00F01BC
:104F200002F01F02595CD04040F21002C2F20002AF
:104F300001F01F0120FA01F1116040F20C02C2F2EF
:104F400000021060DCF80400C0F30220185C00F0DE
:104F50001F0021FA00F080BD44F20041C5F60201B5
:104F60000869C0F3C200032814D002280DD080BB0A
:104F70000868800649F20000C0F2D03058BF704780
:104F80000968C1F3C101C840704747F64000C0F24C
:104F90007D1070478A6A886AC0F3051CC86ABCF134
:104FA000000F4B6B1AD000F00100404200EAD30022
:104FB0006FF35F3000EE100A02F003000228B8EE33
:104FC000400A0DD078B9086880060FD49FED231AE7
:104FD00019E040F60010C0F23D0070470020704715
:104FE0009FED1D1A0FE09FED1B1A0CE0086849F2B7
:104FF0000002C0F2D032C0F3C10022FA00F001EE8C
:10500000100AB8EE411A086B9FED153A6FF35F2056
:1050100002EE100A086BC0F34620B8EE422A0130B7
:1050200000EE032A00EE10CAB7EE003AB8EE400ACE
:1050300081EE000A32EE031A20EE010A01EE100A98
:10504000B8EE411A80EE010ABCEEC00A10EE100A5A
:10505000704700BF0024744A20BCBE4B0024744C2F
:1050600000000039000000002DE9F04381B0002865
:1050700000F0C7818046007844F20049C007C5F6B9
:10508000020954D0D9F8100000F03801D9F82800EE
:10509000102905D018290CD100F00300022808D1EE
:1050A000D9F8000080033ED5D8F80400D8BB01270A
:1050B0002CE0D8F80440D9F800002CB1B4F5A02FAA
:1050C0000BD0B4F5803F0ED020F48030C9F800003A
:1050D000D9F8000020F4802007E040F48020C9F8CF
:1050E0000000D9F8000040F48030C9F80000FEF755
:1050F000ABFB05469CB100BFD9F80000800312D479
:10510000FEF7A2FB401B6428F6D90327002070B9E4
:10511000BCE100BFFEF798FB401B6428F5D8D9F826
:1051200000008003F6D40120002800F0AF8198F839
:105130000000800740F18080D9F8100010F038019D
:10514000D9F828001CD0182908BF5FEA807017D052
:10515000D8F80C00D9F80010002845D021F019012A
:105160000843C9F80000FEF76FFB0546D9F80000B8
:10517000400728D4FEF768FB401B0228F6D91EE042
:10518000D9F80000400704D5D8F80C00002800F03A
:10519000DC81D9F80000D8F80C1020F01900084381
:1051A000C9F80000FEF750FB054600BFD9F8000023
:1051B000400708D4FEF748FB401B0228F6D9032716
:1051C0000024CCBB62E1FEF737FB41F203018842C9
:1051D00021D8D8F81000D9F80410402821F47C31E7
:1051E00022D141F4003021E021F00100C9F8000093
:1051F000FEF72AFB05460126D9F8000010F004004E
:1052000086EA900415D0FEF71FFB401B0228F3D955
:1052100003278CB93AE1D9F80400D8F8101020F02F
:10522000FE4040EA016001E041EA00300124C9F893
:105230000400002C00F02A8198F80000C00670D508
:10524000D9F8100000F03801D9F82800082905D055
:1052500018291CD100F00300012818D1D9F800004A
:10526000C00503D5D8F81C00802855D1FEF7E4FA14
:1052700041F20301884222D8D8F82000D9F804105E
:10528000202821F0F8413ED141F080403DE0D8F89F
:105290001C000028D9F800001ED040F08000C9F89A
:1052A0000000FEF7D1FA0546D9F80000C005DDD4AC
:1052B000FEF7CAFA401B0228F6D903272DE0D9F8D9
:1052C0000C00D8F8201020F07C50012440EA016046
:1052D000C9F80C002CBBD9E020F08000C9F8000010
:1052E000FEF7B2FA05460126D9F8000010F48070E6
:1052F00086EA10240CD0FEF7A7FA401B0328F3D34C
:10530000032774B9C2E041EA8060C9F804000124AF
:10531000002C00F0BB8004E001270024002C00F0EA
:10532000B58098F8000000076DD498F8000080065A
:1053300000F1818098F80000400700F19480D8F8CF
:105340002440002C5BD0D9F8100000F03800182859
:1053500040F0D980012CD9F82810D9F8300050D06D
:1053600001F00302D8F828309A424AD1C1F305115E
:10537000D8F82C20914244D10146D8F830206FF360
:105380005F21013A91423CD1C0F34622D8F8341053
:1053900001398A4235D1C0F30642D8F838100139B4
:1053A0008A422ED1C0F30660D8F83C1001398842F9
:1053B00027D1D9F83400D8F84810C0F3CC00814286
:1053C0001DD0D9F82C0020F00100C9F82C00FEF700
:1053D0003BFA0546FEF738FAA842FBD0D9F834006C
:1053E0004FF6F871D8F84820884340EAC200C9F85F
:1053F0003400D9F82C0040F00100C9F82C00002737
:1054000044E0012742E0D8F814000028D9F87400DD
:1054100040D040F00100C9F87400FEF715FA0546C7
:10542000D9F8740080073FF580AFFEF70DFA401BF6
:105430000228F5D929E0D8F818000028D9F800008A
:105440004DD040F48050C9F80000FEF7FDF9054644
:10545000D9F8000080043FF56DAFFEF7F5F9401B69
:105460000228F5D911E0D9F8000440F48070C9F899
:105470000004FEF7E9F90546D9F80004C0051CD47C
:10548000FEF7E2F9401B6428F6D90327F8B201B011
:10549000BDE8F08320F00100C9F87400FEF7D4F9EC
:1054A00005460327D9F8740080077FF53EAFFEF765
:1054B000CBF9401B0228F5D9E8E7D8F80840D9F81D
:1054C00070001CB1052C42D0012C46D020F0010008
:1054D000C9F87000D9F8700020F004003FE020F413
:1054E0008050C9F80000FEF7AFF90546032700BF5A
:1054F000D9F8000080047FF51DAFFEF7A5F9401B29
:105500000228F5D9C2E7D9F8000020F08070C9F868
:105510000000FEF799F9022C05464FF0030709D168
:10552000D9F8000080013CD5FEF78EF9401B022817
:10553000F6D9ABE7D9F8000080017FF560AFFEF740
:1055400083F9401B0228F5D9A0E7012738E640F08F
:105550000400C9F87000D9F8700040F00100C9F8E3
:105560007000FEF771F9002C054641F288344FF0C7
:10557000030711D0D9F8700080073FF5E0AEFEF7C1
:1055800063F9401BA042F5D980E700BFFEF75CF944
:10559000401BA0423FF67AAFD9F870008007F5D4DF
:1055A000CDE608F12807D9F8280040F2F331884306
:1055B0008ECF0843591E40EA02104FF47E426FF32B
:1055C0005F21C9F8280002EB47204FF4FE0280B2A9
:1055D000D8F83C300844D8F8381002EB01414FF0BD
:1055E000FE4201F4FE0102EB0362084402F0FE41B8
:1055F0000844C9F83000D9F82C004FF6F87120F0B3
:105600000100C9F82C00D9F83400D8F848208843A4
:1056100040EAC200C9F83400D9F82C00D8F840108C
:1056200020F00C000843C9F82C00D9F82C00D8F859
:10563000441020F002000843C9F82C00D9F82C00CF
:1056400040F48030C9F82C00D9F82C0040F4003028
:10565000C9F82C00D9F82C0040F48020C9F82C009F
:10566000D9F82C0040F00100C9F82C00D9F800004E
:1056700040F08070C9F80000FEF7E6F80446032702
:10568000D9F8000080013FF5BAAEFEF7DDF8001B47
:105690000228F5D9FAE60000411E0020B0EB116F98
:1056A00001D0012070474EF21002F023CEF200022A
:1056B00051604EF62351CEF200010B70072190602D
:1056C000116070470000000090F88410012901D19A
:1056D000022070472421C0F8881001680A680B680E
:1056E00022F0005223F001030B60002343660A609E
:1056F0002021C0F8881080F8843000207047000016
:10570000D0F88C30202B06D103460120002918BF89
:10571000002A02D170470220704710B50120D866D8
:105720000020186718461C4602F01AF9002818BF16
:1057300010BDE26E012A0ED12268214610231362A9
:105740000A6852E8002F0B6842F0100243E8002478
:10575000002CF5D110BD012010BD0000000000009C
:1057600010B540F274440A46C2F20004214600F02B
:105770001BFC40F2D0301922C2F200002146BDE8E5
:105780001040FFF7BDBF00007047000000000000A0
:1057900090F88420012A01D102207047B0B501237E
:1057A00080F884302422C0F888200268D0F864E0B1
:1057B000BEF1000FD2F800C0146824F00104146098
:1057C000946824F0606441EA040191601BD0916800
:1057D00048F2241E9368C0F6000E5B0F48F22C15A9
:1057E000C1F34261C0F600051EF80340EB5C2401E2
:1057F000B4FBF3F3A0F86A301EF80130695C1B01BA
:10580000B3FBF1F301E0A0F86A30A0F86830202182
:10581000C2F800C0C0F88810002180F88410002071
:10582000B0BD00000000000090F88420012A01D1E2
:1058300002207047B0B5012380F884302422C0F8DC
:1058400088200268D0F864E0BEF1000FD2F800C0F2
:10585000146824F001041460946824F0604441EA60
:10586000040191601BD0916848F2241E9368C0F631
:10587000000E5B0F48F22C15C1F34261C0F6000523
:105880001EF80340EB5C2401B4FBF3F3A0F86A308C
:105890001EF80130695C1B01B3FBF1F301E0A0F8D5
:1058A0006A30A0F868302021C2F800C0C0F8881023
:1058B000002180F884100020B0BD0000000000002E
:1058C000704700000000000070470000000000006A
:1058D000704700000000000070B5046840F62F011A
:1058E000E269114020292168A66805D101F0200352
:1058F00006F080555B1939D140F60F0313400DD0E7
:10590000012340F22015C1F20003C0F2004506EA6F
:10591000030C01EA050313EB0C032DD1D306C36E70
:1059200016D5012B14D111F0100311D010212162D2
:10593000A168490600F1FB80B0F85C10B0F85E2069
:10594000B0F85E30002B18BF914240F05A8170BD14
:10595000D30240F1CA8016F4800300F0C6804FF4F1
:1059600080112162BDE87040FFF7AEBF416F002992
:10597000EDD0BDE870400847D30718BF11F480731D
:1059800007D001232362D0F8903043F00103C0F820
:105990009030930706F0010E0AD5BEF1000F07D034
:1059A00002232362D0F8903043F00403C0F8903013
:1059B00053070AD5BEF1000F07D004232362D0F8A5
:1059C000903043F00203C0F8903013070CD501F07B
:1059D000200353EA0C0307D008232362D0F8903049
:1059E00043F00803C0F8903013050BD511F0806325
:1059F00008D04FF400632362D0F8903043F02003C6
:105A0000C0F89030D0F89030002BA0D092060AD584
:105A100001F0200106F08052891804D0416F11B1C5
:105A20000446884720460168D0F89020896802F033
:105A3000280201F04001891806D10446FFF748FF0B
:105A40000020C4F8900070BD016851E8001F026892
:105A500021F4907142E80013002BF5D14FF6FE714E
:105A6000CEF6FF71026852E8022F03680A4043E84D
:105A70000226002EF6D1C16E012909D1016851E834
:105A8000001F026821F0100142E80013002BF5D13D
:105A90002021C0F88C100021C1660268416791681E
:105AA000490640F1A18000BF016851E8021F026869
:105AB00021F0400142E80213002BF5D1D0F880100C
:105AC000002900F0918046F6196204460846C0F6A7
:105AD00000020A65FCF758FA00283FF438AFD4F802
